0306010CUIT00307145287490000000000001679958199090202008109999999999999999001709993001000012340000003            2020081011182020081000170999512700002222                                                                                                                                                                                                                                                                                                                                                                                                                                                                                                                                                                                                                                                                                                                          
0306020CUIT0011111111111000001000020364268913000002380000005699581                                            0000000000000                                            202008101118              0000000000000                                        CUI2036426891304662020081020200831CH0000000000000000                                                                                                                                                                                                                                                                                                                                                                                                                                                                                                                                                                        
0306090CUIT0011111111111000002202008101118   0000203642689131CUI20364268913ACOSTA MARIANO                             0000000000000000000000000000000000000           Cabildo                 1414      CABA                        1426 01080mariano-acosta@sumail.com                                                                                                                                                         ALICIA ACOSTA            DNI06290586NICOLAS GIACO            DNI91189776PABLO NEGRO              DNI12897654                                                                                                    00000238                                                                                                                                                                                                                          
0306020CUIT0011111111111000003000030707146385000002390000009860000                                            0000000000000                                            202008101118             S0000000000000                                        CUI3070714638503162020081020200810AB0000000000000000                                                                                                                                                                                                                                                                                                                                                                                                                                                                                                                                                                        
0306090CUIT0011111111111000004202008101118   0000307071463851CUI30707146385BELEZA ARGENTINA S.A.                      0000000000000001910340655034000869400           AV.PASEO COLON          728     11CABA                        1063 01080beleza-arg@sumail.com                                                                                                                                                             MARILINA GUTIERREZ       DNI07658942CLAUDIO GONZALEZ         DNI14239876GABRIELA CAPARRUCCI      DNI06234987                                                                                                    00000239                                                                                                                                                                                                                          
0306020CUIT0011111111111000005000030687116387000002400000001240000                                            0000000000000                                            202008101118              0000000000000                                        CUI3068711638704642020081020200810CH0400000000000000                                                                                                                                                                                                                                                                                                                                                                                                                                                                                                                                                                        
0306090CUIT0011111111111000006202008101118   0000306871163871CUI30687116387TESTING S.A.                               0000000000000000000000000000000000000           AV. RIVADAVIA           123       CIUDAD DE BUENOS AIRES      1111 01080testing@testing.net                                                                                                                                                               JULIO DÍAZ               DNI31135564AMANDA GUTIERREZ         DNI04230897MARTÍN JUAREZ            DNI23908645                                                                                                    00000240                                                                                                                                                                                                                          
0306095CUIT0030714528749000007000001679958100000030000000008                                                                                                                                                                                                                                                                                                                                                                                                                                                                                                                                                                                                                                                                                                                                                                                                                      
