0306010CUIT003071452874900000000000106172071AB000202108312021083120210831001700522601000751950000159            PAPR202108312021083100170052232700000316                                                                                                                                                                                                                                                                                                                                                                                                                                                                                                                                                                                                                                                                                                                          
0306020CUIT0030714528749000001000000000000001000000010000000398400                                            0000000000000                                               PAPR20210831          S0000000398400                                        CUL2018884112100010000000000000000  0000000000000000                                                                                                                                                                                                                                                                                                                                                                                                                                                                                                                                                                        
0306090CUIT0030714528749000002   PAPR202108310000000000000011CUL20188841121MAXIM BUBNOV                               0000000000000000720229488000037061104           CALLE FALSA 123         1414      CABA                        C100001080maximbubnovz@gmail.com                                                                                                                                                                                        00000000                            00000000                            00000000                                                                                                    00000001                                                                                                                                                                                                                          
0306020CUIT0030714528749000003000000000000002000000020000000099600                                            0000000000000                                               PAPR20210831          S0000000099600                                        CUL2035610664500010000000000000000  0000000000000000                                                                                                                                                                                                                                                                                                                                                                                                                                                                                                                                                                        
0306090CUIT0030714528749000004   PAPR202108310000000000000021CUL20356106645FERNANDO GABRIEL VILLABRILLE               0000000000000001430001713009928820015           CALLE FALSA 123         1414      CABA                        C100001080villabrille.fg@gmail.com                                                                                                                                                                                      00000000                            00000000                            00000000                                                                                                    00000002                                                                                                                                                                                                                          
0306020CUIT0030714528749000005000000000000003000000030000000672622                                            0000000000000                                               PAPR20210831          S0000000672622                                        CUL2037243381800010000000000000000  0000000000000000                                                                                                                                                                                                                                                                                                                                                                                                                                                                                                                                                                        
0306090CUIT0030714528749000006   PAPR202108310000000000000031CUL20372433818EZEQUIEL POLITI                            0000000000000000140042703512055020805           CALLE FALSA 123         1414      CABA                        C100001080ezequiel.politi@gmail.com                                                                                                                                                                                     00000000                            00000000                            00000000                                                                                                    00000003                                                                                                                                                                                                                          
0306020CUIT0030714528749000007000000000000004000000040000000672622                                            0000000000000                                               PAPR20210831          S0000000672622                                        CUL2395596185400010000000000000000  0000000000000000                                                                                                                                                                                                                                                                                                                                                                                                                                                                                                                                                                        
0306090CUIT0030714528749000008   PAPR202108310000000000000041CUL23955961854GABRIELA MENEZES                           0000000000000002850536740095048331388           CALLE FALSA 123         1414      CABA                        C100001080gabrielamenezesadv@gmail.com                                                                                                                                                                                  00000000                            00000000                            00000000                                                                                                    00000004                                                                                                                                                                                                                          
0306020CUIT0030714528749000009000000000000005000000050000000672622                                            0000000000000                                               PAPR20210831          S0000000672622                                        CUL2039215441900010000000000000000  0000000000000000                                                                                                                                                                                                                                                                                                                                                                                                                                                                                                                                                                        
0306090CUIT0030714528749000010   PAPR202108310000000000000051CUL20392154419RODRIGO TOVI                               0000000000000000070999030004103599121           CALLE FALSA 123         1414      CABA                        C100001080rodri.tovi@gmail.com                                                                                                                                                                                          00000000                            00000000                            00000000                                                                                                    00000005                                                                                                                                                                                                                          
0306020CUIT0030714528749000011000000000000006000000060000000336311                                            0000000000000                                               PAPR20210831          S0000000336311                                        CUL2731896488800010000000000000000  0000000000000000                                                                                                                                                                                                                                                                                                                                                                                                                                                                                                                                                                        
0306090CUIT0030714528749000012   PAPR202108310000000000000061CUL27318964888EMILIANO ROMERO                            0000000000000000340324008324008412000           CALLE FALSA 123         1414      CABA                        C100001080emirom14@gmail.com                                                                                                                                                                                            00000000                            00000000                            00000000                                                                                                    00000006                                                                                                                                                                                                                          
0306020CUIT0030714528749000013000000000000007000000070000000336311                                            0000000000000                                               PAPR20210831          S0000000336311                                        CUL2093458980800010000000000000000  0000000000000000                                                                                                                                                                                                                                                                                                                                                                                                                                                                                                                                                                        
0306090CUIT0030714528749000014   PAPR202108310000000000000071CUL20934589808IVAN AYALA                                 0000000000000000720006988000036975590           CALLE FALSA 123         1414      CABA                        C100001080ifayala.ia@outlook.com                                                                                                                                                                                        00000000                            00000000                            00000000                                                                                                    00000007                                                                                                                                                                                                                          
0306020CUIT0030714528749000015000000000000008000000080000000336311                                            0000000000000                                               PAPR20210831          S0000000336311                                        CUL2037661447700010000000000000000  0000000000000000                                                                                                                                                                                                                                                                                                                                                                                                                                                                                                                                                                        
0306090CUIT0030714528749000016   PAPR202108310000000000000081CUL20376614477MATIAS ZAPIOLA                             0000000000000000070327530004073715118           CALLE FALSA 123         1414      CABA                        C100001080matiaszapiola@outlook.com                                                                                                                                                                                     00000000                            00000000                            00000000                                                                                                    00000008                                                                                                                                                                                                                          
0306020CUIT0030714528749000017000000000000009000000090000000336311                                            0000000000000                                               PAPR20210831          S0000000336311                                        CUL2332674745900010000000000000000  0000000000000000                                                                                                                                                                                                                                                                                                                                                                                                                                                                                                                                                                        
0306090CUIT0030714528749000018   PAPR202108310000000000000091CUL23326747459NICOLAS DANIEL LUCHETTI                    0000000000000001500054100030069465050           CALLE FALSA 123         1414      CABA                        C100001080nicolasluchetti87@gmail.com                                                                                                                                                                                   00000000                            00000000                            00000000                                                                                                    00000009                                                                                                                                                                                                                          
0306020CUIT0030714528749000019000000000000010000000100000000168156                                            0000000000000                                               PAPR20210831           0000000168156                                        CUL2038389605400010000000000000000  0000000000000000                                                                                                                                                                                                                                                                                                                                                                                                                                                                                                                                                                        
0306090CUIT0030714528749000020   PAPR202108310000000000000101CUL20383896054AGUSTIN VILAS GRAFFIGNA                    0000000000000000170308340000033322423           CALLE FALSA 123         1414      CABA                        C100001080agustinvilas143@gmail.com                                                                                                                                                                                     00000000                            00000000                            00000000                                                                                                    00000010                                                                                                                                                                                                                          
0306020CUIT0030714528749000021000000000000011000000110000000168156                                            0000000000000                                               PAPR20210831           0000000168156                                        CUL2737068975500010000000000000000  0000000000000000                                                                                                                                                                                                                                                                                                                                                                                                                                                                                                                                                                        
0306090CUIT0030714528749000022   PAPR202108310000000000000111CUL27370689755ROCIO LOPEZ                                0000000000000000170320540000071866015           CALLE FALSA 123         1414      CABA                        C100001080callmerociolopez@gmail.com                                                                                                                                                                                    00000000                            00000000                            00000000                                                                                                    00000011                                                                                                                                                                                                                          
0306020CUIT0030714528749000023000000000000012000000120000000168156                                            0000000000000                                               PAPR20210831          S0000000168156                                        CUL2736212979100010000000000000000  0000000000000000                                                                                                                                                                                                                                                                                                                                                                                                                                                                                                                                                                        
0306090CUIT0030714528749000024   PAPR202108310000000000000121CUL27362129791SHEILA MALASECHEVARRIA                     0000000000000000070256230004031896512           CALLE FALSA 123         1414      CABA                        C100001080snmalasechevarria@gmail.com                                                                                                                                                                                   00000000                            00000000                            00000000                                                                                                    00000012                                                                                                                                                                                                                          
0306020CUIT0030714528749000025000000000000013000000130000003000000                                            0000000000000                                               PAPR20210831          S0000003000000                                        CUL2039961142400010000000000000000  0000000000000000                                                                                                                                                                                                                                                                                                                                                                                                                                                                                                                                                                        
0306090CUIT0030714528749000026   PAPR202108310000000000000131CUL20399611424AGUSTIN COLACI                             0000000000000000150501601000367399071           CALLE FALSA 123         1414      CABA                        C100001080agustincolaci@gmail.com                                                                                                                                                                                       00000000                            00000000                            00000000                                                                                                    00000013                                                                                                                                                                                                                          
0306020CUIT0030714528749000027000000000000014000000140000002750440                                            0000000000000                                               PAPR20210831          S0000002750440                                        CUL2095609236200010000000000000000  0000000000000000                                                                                                                                                                                                                                                                                                                                                                                                                                                                                                                                                                        
0306090CUIT0030714528749000028   PAPR202108310000000000000141CUL20956092362CESAR ANTONIO ASTORGA                      0000000000000000110142930014211760397           CALLE FALSA 123         1414      CABA                        C100001080cesar.antonio.astorga@gmail.com                                                                                                                                                                               00000000                            00000000                            00000000                                                                                                    00000014                                                                                                                                                                                                                          
0306020CUIT0030714528749000029000000000000015000000150000002750440                                            0000000000000                                               PAPR20210831          S0000002750440                                        CUL2337752414400010000000000000000  0000000000000000                                                                                                                                                                                                                                                                                                                                                                                                                                                                                                                                                                        
0306090CUIT0030714528749000030   PAPR202108310000000000000151CUL23377524144JOHANNA LUISA PALO BAEL                    0000000000000000070393030004003117883           CALLE FALSA 123         1414      CABA                        C100001080joa.palobael@gmail.com                                                                                                                                                                                        00000000                            00000000                            00000000                                                                                                    00000015                                                                                                                                                                                                                          
0306020CUIT0030714528749000031000000000000016000000160000001650264                                            0000000000000                                               PAPR20210831          S0000001650264                                        CUL2038401810700010000000000000000  0000000000000000                                                                                                                                                                                                                                                                                                                                                                                                                                                                                                                                                                        
0306090CUIT0030714528749000032   PAPR202108310000000000000161CUL20384018107GUIDO CARUSO                               0000000000000000070086330004033942305           CALLE FALSA 123         1414      CABA                        C100001080guido.caruso@hotmail.com                                                                                                                                                                                      00000000                            00000000                            00000000                                                                                                    00000016                                                                                                                                                                                                                          
0306020CUIT0030714528749000033000000000000017000000170000001650264                                            0000000000000                                               PAPR20210831           0000001650264                                        CUL2739808615000010000000000000000  0000000000000000                                                                                                                                                                                                                                                                                                                                                                                                                                                                                                                                                                        
0306090CUIT0030714528749000034   PAPR202108310000000000000171CUL27398086150LUCIANA CALISAYA                           0000000000000000170090940000048185521           CALLE FALSA 123         1414      CABA                        C100001080lulacalisaya@gmail.com                                                                                                                                                                                        00000000                            00000000                            00000000                                                                                                    00000017                                                                                                                                                                                                                          
0306020CUIT0030714528749000035000000000000018000000180000000550088                                            0000000000000                                               PAPR20210831           0000000550088                                        CUL2095991017100010000000000000000  0000000000000000                                                                                                                                                                                                                                                                                                                                                                                                                                                                                                                                                                        
0306090CUIT0030714528749000036   PAPR202108310000000000000181CUL20959910171ALEJANDRO FERNANDEZ                        0000000000000000170342720000031063939           CALLE FALSA 123         1414      CABA                        C100001080alejandromoises02@gmail.com                                                                                                                                                                                   00000000                            00000000                            00000000                                                                                                    00000018                                                                                                                                                                                                                          
0306020CUIT0030714528749000037000000000000019000000190000000550088                                            0000000000000                                               PAPR20210831          S0000000550088                                        CUL2795706428600010000000000000000  0000000000000000                                                                                                                                                                                                                                                                                                                                                                                                                                                                                                                                                                        
0306090CUIT0030714528749000038   PAPR202108310000000000000191CUL27957064286ANDREA BASTIDAS                            0000000000000000070066530004041727002           CALLE FALSA 123         1414      CABA                        C100001080andrea.bcolina@gmail.com                                                                                                                                                                                      00000000                            00000000                            00000000                                                                                                    00000019                                                                                                                                                                                                                          
0306020CUIT0030714528749000039000000000000020000000200000000550088                                            0000000000000                                               PAPR20210831          S0000000550088                                        CUL2719082209000010000000000000000  0000000000000000                                                                                                                                                                                                                                                                                                                                                                                                                                                                                                                                                                        
0306090CUIT0030714528749000040   PAPR202108310000000000000201CUL27190822090ANDREINA CORTEZ GUTIERREZ                  0000000000000000070393030004008809998           CALLE FALSA 123         1414      CABA                        C100001080arq.acortezg@gmail.com                                                                                                                                                                                        00000000                            00000000                            00000000                                                                                                    00000020                                                                                                                                                                                                                          
0306020CUIT0030714528749000041000000000000021000000210000000550088                                            0000000000000                                               PAPR20210831          S0000000550088                                        CUL2034151430500010000000000000000  0000000000000000                                                                                                                                                                                                                                                                                                                                                                                                                                                                                                                                                                        
0306090CUIT0030714528749000042   PAPR202108310000000000000211CUL20341514305DAMIAN TUPPO                               0000000000000000150502301000129446535           CALLE FALSA 123         1414      CABA                        C100001080berlininstrumentos@gmail.com                                                                                                                                                                                  00000000                            00000000                            00000000                                                                                                    00000021                                                                                                                                                                                                                          
0306020CUIT0030714528749000043000000000000022000000220000000550088                                            0000000000000                                               PAPR20210831          S0000000550088                                        CUL2034459292700010000000000000000  0000000000000000                                                                                                                                                                                                                                                                                                                                                                                                                                                                                                                                                                        
0306090CUIT0030714528749000044   PAPR202108310000000000000221CUL20344592927EMMANUEL CACERES                           0000000000000000720090888000034193172           CALLE FALSA 123         1414      CABA                        C100001080emmanuelc89@gmail.com                                                                                                                                                                                         00000000                            00000000                            00000000                                                                                                    00000022                                                                                                                                                                                                                          
0306020CUIT0030714528749000045000000000000023000000230000000550088                                            0000000000000                                               PAPR20210831           0000000550088                                        CUL2332774565400010000000000000000  0000000000000000                                                                                                                                                                                                                                                                                                                                                                                                                                                                                                                                                                        
0306090CUIT0030714528749000046   PAPR202108310000000000000231CUL23327745654FACUNDO CASAS CAU                          0000000000000000170070140000077594145           CALLE FALSA 123         1414      CABA                        C100001080facundocasascau@gmail.com                                                                                                                                                                                     00000000                            00000000                            00000000                                                                                                    00000023                                                                                                                                                                                                                          
0306020CUIT0030714528749000047000000000000024000000240000000550088                                            0000000000000                                               PAPR20210831          S0000000550088                                        CUL2720086086700010000000000000000  0000000000000000                                                                                                                                                                                                                                                                                                                                                                                                                                                                                                                                                                        
0306090CUIT0030714528749000048   PAPR202108310000000000000241CUL27200860867FRANCO EZEQUIEL MARCHEGIANI                0000000000000000140012003401251805115           CALLE FALSA 123         1414      CABA                        C100001080francoezequielmarchegiani2019@gmail.com                                                                                                                                                                       00000000                            00000000                            00000000                                                                                                    00000024                                                                                                                                                                                                                          
0306020CUIT0030714528749000049000000000000025000000250000000550088                                            0000000000000                                               PAPR20210831          S0000000550088                                        CUL2039073121400010000000000000000  0000000000000000                                                                                                                                                                                                                                                                                                                                                                                                                                                                                                                                                                        
0306090CUIT0030714528749000050   PAPR202108310000000000000251CUL20390731214LAUTARO GARCIA                             0000000000000000110213230021315301797           CALLE FALSA 123         1414      CABA                        C100001080lautarojgarcia177@gmail.com                                                                                                                                                                                   00000000                            00000000                            00000000                                                                                                    00000025                                                                                                                                                                                                                          
0306020CUIT0030714528749000051000000000000026000000260000000550088                                            0000000000000                                               PAPR20210831          S0000000550088                                        CUL2735657923800010000000000000000  0000000000000000                                                                                                                                                                                                                                                                                                                                                                                                                                                                                                                                                                        
0306090CUIT0030714528749000052   PAPR202108310000000000000261CUL27356579238MARILYN BOTHEATOZ                          0000000000000000150540501000115197076           CALLE FALSA 123         1414      CABA                        C100001080mbotheatoz@gmail.com                                                                                                                                                                                          00000000                            00000000                            00000000                                                                                                    00000026                                                                                                                                                                                                                          
0306020CUIT0030714528749000053000000000000027000000270000000550088                                            0000000000000                                               PAPR20210831          S0000000550088                                        CUL2036594282000010000000000000000  0000000000000000                                                                                                                                                                                                                                                                                                                                                                                                                                                                                                                                                                        
0306090CUIT0030714528749000054   PAPR202108310000000000000271CUL20365942820SOLANGE MAC INTYRE                         0000000000000000720119288000036531572           CALLE FALSA 123         1414      CABA                        C100001080sol_mac@hotmail.com                                                                                                                                                                                           00000000                            00000000                            00000000                                                                                                    00000027                                                                                                                                                                                                                          
0306020CUIT0030714528749000055000000000000028000000280000000550088                                            0000000000000                                               PAPR20210831          S0000000550088                                        CUL2335577634400010000000000000000  0000000000000000                                                                                                                                                                                                                                                                                                                                                                                                                                                                                                                                                                        
0306090CUIT0030714528749000056   PAPR202108310000000000000281CUL23355776344WANDA CATELLANI                            0000000000000001430001713020131710014           CALLE FALSA 123         1414      CABA                        C100001080cwand07@gmail.com                                                                                                                                                                                             00000000                            00000000                            00000000                                                                                                    00000028                                                                                                                                                                                                                          
0306020CUIT0030714528749000057000000000000029000000290000000550088                                            0000000000000                                               PAPR20210831          S0000000550088                                        CUL2736749087500010000000000000000  0000000000000000                                                                                                                                                                                                                                                                                                                                                                                                                                                                                                                                                                        
0306090CUIT0030714528749000058   PAPR202108310000000000000291CUL27367490875YANET ESTEFANIA SANCHEZ                    0000000000000000720742888000000663186           CALLE FALSA 123         1414      CABA                        C100001080yanetsanchezdcv@gmail.com                                                                                                                                                                                     00000000                            00000000                            00000000                                                                                                    00000029                                                                                                                                                                                                                          
0306020CUIT0030714528749000059000000000000030000000300000000881250                                            0000000000000                                               PAPR20210831          S0000000881250                                        CUL2730720304400010000000000000000  0000000000000000                                                                                                                                                                                                                                                                                                                                                                                                                                                                                                                                                                        
0306090CUIT0030714528749000060   PAPR202108310000000000000301CUL27307203044NATALIA GHIZZONI                           0000000000000000110151130015114008115           CALLE FALSA 123         1414      CABA                        C100001080nat.ghizzoni@gmail.com                                                                                                                                                                                        00000000                            00000000                            00000000                                                                                                    00000030                                                                                                                                                                                                                          
0306020CUIT0030714528749000061000000000000031000000310000000528750                                            0000000000000                                               PAPR20210831          S0000000528750                                        CUL2731542320700010000000000000000  0000000000000000                                                                                                                                                                                                                                                                                                                                                                                                                                                                                                                                                                        
0306090CUIT0030714528749000062   PAPR202108310000000000000311CUL27315423207ANA FERNANDEZ                              0000000000000000070101930004159665931           CALLE FALSA 123         1414      CABA                        C100001080anafernandg@gmail.com                                                                                                                                                                                         00000000                            00000000                            00000000                                                                                                    00000031                                                                                                                                                                                                                          
0306020CUIT0030714528749000063000000000000032000000320000000528750                                            0000000000000                                               PAPR20210831          S0000000528750                                        CUL2730516456400010000000000000000  0000000000000000                                                                                                                                                                                                                                                                                                                                                                                                                                                                                                                                                                        
0306090CUIT0030714528749000064   PAPR202108310000000000000321CUL27305164564ANDREA ENID SOTTO                          0000000000000000070053530004022665310           CALLE FALSA 123         1414      CABA                        C100001080sotto.andrea@gmail.com                                                                                                                                                                                        00000000                            00000000                            00000000                                                                                                    00000032                                                                                                                                                                                                                          
0306020CUIT0030714528749000065000000000000033000000330000000528750                                            0000000000000                                               PAPR20210831          S0000000528750                                        CUL2736273034700010000000000000000  0000000000000000                                                                                                                                                                                                                                                                                                                                                                                                                                                                                                                                                                        
0306090CUIT0030714528749000066   PAPR202108310000000000000331CUL27362730347CYNTHIA MASCHIO                            0000000000000000070327530004028918340           CALLE FALSA 123         1414      CABA                        C100001080cynthia_maschio@hotmail.com                                                                                                                                                                                   00000000                            00000000                            00000000                                                                                                    00000033                                                                                                                                                                                                                          
0306020CUIT0030714528749000067000000000000034000000340000000528750                                            0000000000000                                               PAPR20210831          S0000000528750                                        CUL2735729285400010000000000000000  0000000000000000                                                                                                                                                                                                                                                                                                                                                                                                                                                                                                                                                                        
0306090CUIT0030714528749000068   PAPR202108310000000000000341CUL27357292854INES LUCIANA SIAS                          0000000000000000150876301000000850514           CALLE FALSA 123         1414      CABA                        C100001080ines.sias@gmail.com                                                                                                                                                                                           00000000                            00000000                            00000000                                                                                                    00000034                                                                                                                                                                                                                          
0306020CUIT0030714528749000069000000000000035000000350000000528750                                            0000000000000                                               PAPR20210831          S0000000528750                                        CUL2036400572600010000000000000000  0000000000000000                                                                                                                                                                                                                                                                                                                                                                                                                                                                                                                                                                        
0306090CUIT0030714528749000070   PAPR202108310000000000000351CUL20364005726MARTIN BACCINO                             0000000000000001910027855102700929303           CALLE FALSA 123         1414      CABA                        C100001080martinbaccino1@gmail.com                                                                                                                                                                                      00000000                            00000000                            00000000                                                                                                    00000035                                                                                                                                                                                                                          
0306020CUIT0030714528749000071000000000000036000000360000000176250                                            0000000000000                                               PAPR20210831          S0000000176250                                        CUL2030740324300010000000000000000  0000000000000000                                                                                                                                                                                                                                                                                                                                                                                                                                                                                                                                                                        
0306090CUIT0030714528749000072   PAPR202108310000000000000361CUL20307403243ALFREDO CORDOBA                            0000000000000004150999718001572860015           CALLE FALSA 123         1414      CABA                        C100001080alfrecordoba24@gmail.com                                                                                                                                                                                      00000000                            00000000                            00000000                                                                                                    00000036                                                                                                                                                                                                                          
0306020CUIT0030714528749000073000000000000037000000370000000176250                                            0000000000000                                               PAPR20210831          S0000000176250                                        CUL2039168214400010000000000000000  0000000000000000                                                                                                                                                                                                                                                                                                                                                                                                                                                                                                                                                                        
0306090CUIT0030714528749000074   PAPR202108310000000000000371CUL20391682144CRISTIAN LENCINA                           0000000000000000720125388000039111272           CALLE FALSA 123         1414      CABA                        C100001080cradlencina@gmail.com                                                                                                                                                                                         00000000                            00000000                            00000000                                                                                                    00000037                                                                                                                                                                                                                          
0306020CUIT0030714528749000075000000000000038000000380000000176250                                            0000000000000                                               PAPR20210831          S0000000176250                                        CUL2734739811500010000000000000000  0000000000000000                                                                                                                                                                                                                                                                                                                                                                                                                                                                                                                                                                        
0306090CUIT0030714528749000076   PAPR202108310000000000000381CUL27347398115DANIELA LUBINIECKI                         0000000000000000720413988000032795486           CALLE FALSA 123         1414      CABA                        C100001080dani.lubiniecki@gmail.com                                                                                                                                                                                     00000000                            00000000                            00000000                                                                                                    00000038                                                                                                                                                                                                                          
0306020CUIT0030714528749000077000000000000039000000390000000176250                                            0000000000000                                               PAPR20210831          S0000000176250                                        CUL2035457178700010000000000000000  0000000000000000                                                                                                                                                                                                                                                                                                                                                                                                                                                                                                                                                                        
0306090CUIT0030714528749000078   PAPR202108310000000000000391CUL20354571787FEDERICO PASUTTI                           0000000000000000070128630004027939070           CALLE FALSA 123         1414      CABA                        C100001080f.j.pasutti@gmail.com                                                                                                                                                                                         00000000                            00000000                            00000000                                                                                                    00000039                                                                                                                                                                                                                          
0306020CUIT0030714528749000079000000000000040000000400000000176250                                            0000000000000                                               PAPR20210831          S0000000176250                                        CUL2738525361900010000000000000000  0000000000000000                                                                                                                                                                                                                                                                                                                                                                                                                                                                                                                                                                        
0306090CUIT0030714528749000080   PAPR202108310000000000000401CUL27385253619FELICITAS CASTANOS                         0000000000000000720196388000037764768           CALLE FALSA 123         1414      CABA                        C100001080felicitascast@gmail.com                                                                                                                                                                                       00000000                            00000000                            00000000                                                                                                    00000040                                                                                                                                                                                                                          
0306020CUIT0030714528749000081000000000000041000000410000000176250                                            0000000000000                                               PAPR20210831          S0000000176250                                        CUL2735965305600010000000000000000  0000000000000000                                                                                                                                                                                                                                                                                                                                                                                                                                                                                                                                                                        
0306090CUIT0030714528749000082   PAPR202108310000000000000411CUL27359653056GUADALUPE CEIJAS LURASCHI                  0000000000000000070355830004006494781           CALLE FALSA 123         1414      CABA                        C100001080guada.ceijas@gmail.com                                                                                                                                                                                        00000000                            00000000                            00000000                                                                                                    00000041                                                                                                                                                                                                                          
0306020CUIT0030714528749000083000000000000042000000420000000176250                                            0000000000000                                               PAPR20210831          S0000000176250                                        CUL2095728965800010000000000000000  0000000000000000                                                                                                                                                                                                                                                                                                                                                                                                                                                                                                                                                                        
0306090CUIT0030714528749000084   PAPR202108310000000000000421CUL20957289658ISAAC ALMEIDA ORIZ                         0000000000000000720511888000035291004           CALLE FALSA 123         1414      CABA                        C100001080isaac.almorth@gmail.com                                                                                                                                                                                       00000000                            00000000                            00000000                                                                                                    00000042                                                                                                                                                                                                                          
0306020CUIT0030714528749000085000000000000043000000430000000176250                                            0000000000000                                               PAPR20210831          S0000000176250                                        CUL2096004183700010000000000000000  0000000000000000                                                                                                                                                                                                                                                                                                                                                                                                                                                                                                                                                                        
0306090CUIT0030714528749000086   PAPR202108310000000000000431CUL20960041837JOSE FRIAS                                 0000000000000000070366430004005085755           CALLE FALSA 123         1414      CABA                        C100001080josejfdiaz@gmail.com                                                                                                                                                                                          00000000                            00000000                            00000000                                                                                                    00000043                                                                                                                                                                                                                          
0306020CUIT0030714528749000087000000000000044000000440000000176250                                            0000000000000                                               PAPR20210831          S0000000176250                                        CUL2738356701200010000000000000000  0000000000000000                                                                                                                                                                                                                                                                                                                                                                                                                                                                                                                                                                        
0306090CUIT0030714528749000088   PAPR202108310000000000000441CUL27383567012JULIETA CABRERA                            0000000000000000720050288000036894240           CALLE FALSA 123         1414      CABA                        C1000010801julicabrera@gmail.com                                                                                                                                                                                        00000000                            00000000                            00000000                                                                                                    00000044                                                                                                                                                                                                                          
0306020CUIT0030714528749000089000000000000045000000450000000176250                                            0000000000000                                               PAPR20210831          S0000000176250                                        CUL2740010468400010000000000000000  0000000000000000                                                                                                                                                                                                                                                                                                                                                                                                                                                                                                                                                                        
0306090CUIT0030714528749000090   PAPR202108310000000000000451CUL27400104684LUCIA MONTEIRO                             0000000000000001430001713020873350017           CALLE FALSA 123         1414      CABA                        C100001080luciamonteiro23@gmail.com                                                                                                                                                                                     00000000                            00000000                            00000000                                                                                                    00000045                                                                                                                                                                                                                          
0306020CUIT0030714528749000091000000000000046000000460000000176250                                            0000000000000                                               PAPR20210831          S0000000176250                                        CUL2737255012600010000000000000000  0000000000000000                                                                                                                                                                                                                                                                                                                                                                                                                                                                                                                                                                        
0306090CUIT0030714528749000092   PAPR202108310000000000000461CUL27372550126ORNELA BRUTTO                              0000000000000000070094830004029336947           CALLE FALSA 123         1414      CABA                        C100001080ornelabrutto@gmail.com                                                                                                                                                                                        00000000                            00000000                            00000000                                                                                                    00000046                                                                                                                                                                                                                          
0306020CUIT0030714528749000093000000000000047000000470000000176250                                            0000000000000                                               PAPR20210831          S0000000176250                                        CUL2037053779900010000000000000000  0000000000000000                                                                                                                                                                                                                                                                                                                                                                                                                                                                                                                                                                        
0306090CUIT0030714528749000094   PAPR202108310000000000000471CUL20370537799ROGELIO RIVEROS                            0000000000000000720413988000035911890           CALLE FALSA 123         1414      CABA                        C100001080rogelioriverosdg@gmail.com                                                                                                                                                                                    00000000                            00000000                            00000000                                                                                                    00000047                                                                                                                                                                                                                          
0306020CUIT0030714528749000095000000000000048000000480000000176250                                            0000000000000                                               PAPR20210831          S0000000176250                                        CUL2729482539300010000000000000000  0000000000000000                                                                                                                                                                                                                                                                                                                                                                                                                                                                                                                                                                        
0306090CUIT0030714528749000096   PAPR202108310000000000000481CUL27294825393SABRINA GAGO                               0000000000000000070024530004011242937           CALLE FALSA 123         1414      CABA                        C100001080sabrigago@gmail.com                                                                                                                                                                                           00000000                            00000000                            00000000                                                                                                    00000048                                                                                                                                                                                                                          
0306020CUIT0030714528749000097000000000000049000000490000000176250                                            0000000000000                                               PAPR20210831          S0000000176250                                        CUL2794469837500010000000000000000  0000000000000000                                                                                                                                                                                                                                                                                                                                                                                                                                                                                                                                                                        
0306090CUIT0030714528749000098   PAPR202108310000000000000491CUL27944698375WANDA GALVIS                               0000000000000000720032888000036737536           CALLE FALSA 123         1414      CABA                        C100001080wandagalvisp@gmail.com                                                                                                                                                                                        00000000                            00000000                            00000000                                                                                                    00000049                                                                                                                                                                                                                          
0306020CUIT0030714528749000099000000000000050000000500000002256000                                            0000000000000                                               PAPR20210831           0000002256000                                        CUL2334689209900010000000000000000  0000000000000000                                                                                                                                                                                                                                                                                                                                                                                                                                                                                                                                                                        
0306090CUIT0030714528749000100   PAPR202108310000000000000501CUL23346892099BENJAMIN NIEVAS                            0000000000000000170386140000000503927           CALLE FALSA 123         1414      CABA                        C100001080benja_cba05@hotmail.com                                                                                                                                                                                       00000000                            00000000                            00000000                                                                                                    00000050                                                                                                                                                                                                                          
0306020CUIT0030714528749000101000000000000051000000510000000902400                                            0000000000000                                               PAPR20210831          S0000000902400                                        CUL2713842915100010000000000000000  0000000000000000                                                                                                                                                                                                                                                                                                                                                                                                                                                                                                                                                                        
0306090CUIT0030714528749000102   PAPR202108310000000000000511CUL27138429151JUANA FANELLI                              0000000000000000720769588000001007868           CALLE FALSA 123         1414      CABA                        C100001080juanafanelli@gmail.com                                                                                                                                                                                        00000000                            00000000                            00000000                                                                                                    00000051                                                                                                                                                                                                                          
0306020CUIT0030714528749000103000000000000052000000520000000225600                                            0000000000000                                               PAPR20210831          S0000000225600                                        CUL2726879583400010000000000000000  0000000000000000                                                                                                                                                                                                                                                                                                                                                                                                                                                                                                                                                                        
0306090CUIT0030714528749000104   PAPR202108310000000000000521CUL27268795834FLORENCIA NUNEZ                            0000000000000000070999030005145680691           CALLE FALSA 123         1414      CABA                        C100001080fnunezdg@gmail.com                                                                                                                                                                                            00000000                            00000000                            00000000                                                                                                    00000052                                                                                                                                                                                                                          
0306020CUIT0030714528749000105000000000000053000000530000000225600                                            0000000000000                                               PAPR20210831          S0000000225600                                        CUL2794469837500010000000000000000  0000000000000000                                                                                                                                                                                                                                                                                                                                                                                                                                                                                                                                                                        
0306090CUIT0030714528749000106   PAPR202108310000000000000531CUL27944698375WANDA GALVIS                               0000000000000000720032888000036737536           CALLE FALSA 123         1414      CABA                        C100001080wandagalvisp@gmail.com                                                                                                                                                                                        00000000                            00000000                            00000000                                                                                                    00000053                                                                                                                                                                                                                          
0306020CUIT0030714528749000107000000000000054000000540000000996000                                            0000000000000                                               PAPR20210831          S0000000996000                                        CUL2018287390000010000000000000000  0000000000000000                                                                                                                                                                                                                                                                                                                                                                                                                                                                                                                                                                        
0306090CUIT0030714528749000108   PAPR202108310000000000000541CUL20182873900CAROLINA DI BELLA                          0000000000000000720769588000036636604           CALLE FALSA 123         1414      CABA                        C100001080caroldibella@gmail.com                                                                                                                                                                                        00000000                            00000000                            00000000                                                                                                    00000054                                                                                                                                                                                                                          
0306020CUIT0030714528749000109000000000000055000000550000000597600                                            0000000000000                                               PAPR20210831           0000000597600                                        CUL2736649418400010000000000000000  0000000000000000                                                                                                                                                                                                                                                                                                                                                                                                                                                                                                                                                                        
0306090CUIT0030714528749000110   PAPR202108310000000000000551CUL27366494184CECILIA AMOR                               0000000000000000170026840000006182928           CALLE FALSA 123         1414      CABA                        C100001080amor.m.cecilia@gmail.com                                                                                                                                                                                      00000000                            00000000                            00000000                                                                                                    00000055                                                                                                                                                                                                                          
0306020CUIT0030714528749000111000000000000056000000560000000199200                                            0000000000000                                               PAPR20210831           0000000199200                                        CUL2733419382400010000000000000000  0000000000000000                                                                                                                                                                                                                                                                                                                                                                                                                                                                                                                                                                        
0306090CUIT0030714528749000112   PAPR202108310000000000000561CUL27334193824JESICA AMICO                               0000000000000000170173540000030983847           CALLE FALSA 123         1414      CABA                        C100001080jesicaamico87@gmail.com                                                                                                                                                                                       00000000                            00000000                            00000000                                                                                                    00000056                                                                                                                                                                                                                          
0306020CUIT0030714528749000113000000000000057000000570000000199200                                            0000000000000                                               PAPR20210831          S0000000199200                                        CUL2740252517200010000000000000000  0000000000000000                                                                                                                                                                                                                                                                                                                                                                                                                                                                                                                                                                        
0306090CUIT0030714528749000114   PAPR202108310000000000000571CUL27402525172MARIA JIMENA BARCIA EZCURRA                0000000000000000720005288000039169318           CALLE FALSA 123         1414      CABA                        C100001080mariajimenabarcia@gmail.com                                                                                                                                                                                   00000000                            00000000                            00000000                                                                                                    00000057                                                                                                                                                                                                                          
0306020CUIT0030714528749000115000000000000058000000580000001840608                                            0000000000000                                               PAPR20210831          S0000001840608                                        CUL2724264923600010000000000000000  0000000000000000                                                                                                                                                                                                                                                                                                                                                                                                                                                                                                                                                                        
0306090CUIT0030714528749000116   PAPR202108310000000000000581CUL27242649236FERNANDA BURGOS                            0000000000000000720192588000024275804           CALLE FALSA 123         1414      CABA                        C100001080burgosfs@gmail.com                                                                                                                                                                                            00000000                            00000000                            00000000                                                                                                    00000058                                                                                                                                                                                                                          
