0306010CUIT003071452874900000000000077708724AB000202109032021090320210903001700522601000751950000086            PAPR202109032021090300170052232700000316                                                                                                                                                                                                                                                                                                                                                                                                                                                                                                                                                                                                                                                                                                                          
0306020CUIT0030714528749000001000000000000001000000010000000949700                                            0000000000000                                               PAPR20210903          S0000000949700                                        CUL2032788914200010000000000000000  0000000000000000                                                                                                                                                                                                                                                                                                                                                                                                                                                                                                                                                                        
0306090CUIT0030714528749000002   PAPR202109030000000000000011CUL20327889142PALAZZO LUCAS EMILIANO                     0000000000000000290057510000005979825           CALLE FALSA 123         1414      CABA                        C100001080facu.02@hotmail.com.ar                                                                                                                                                                                        00000000                            00000000                            00000000                                                                                                    00000001                                                                                                                                                                                                                          
0306020CUIT0030714528749000003000000000000002000000020000000945000                                            0000000000000                                               PAPR20210903          S0000000945000                                        CUL2741672865300010000000000000000  0000000000000000                                                                                                                                                                                                                                                                                                                                                                                                                                                                                                                                                                        
0306090CUIT0030714528749000004   PAPR202109030000000000000021CUL27416728653ARDISSONE MARIANA TRINIDAD                 0000000000000001430001713022528640018           CALLE FALSA 123         1414      CABA                        C100001080mariana.ardissone7@gmail.com                                                                                                                                                                                  00000000                            00000000                            00000000                                                                                                    00000002                                                                                                                                                                                                                          
0306020CUIT0030714528749000005000000000000003000000030000001075000                                            0000000000000                                               PAPR20210903          S0000001075000                                        CUL2094011375000010000000000000000  0000000000000000                                                                                                                                                                                                                                                                                                                                                                                                                                                                                                                                                                        
0306090CUIT0030714528749000006   PAPR202109030000000000000031CUL20940113750ESPINOZA CASTILLO JORGE ENRIQUE            0000000000000000720209688000036997840           CALLE FALSA 123         1414      CABA                        C100001080aguero.mery@gmail.com                                                                                                                                                                                         00000000                            00000000                            00000000                                                                                                    00000003                                                                                                                                                                                                                          
0306020CUIT0030714528749000007000000000000004000000040000000885000                                            0000000000000                                               PAPR20210903          S0000000885000                                        CUL2729097252900010000000000000000  0000000000000000                                                                                                                                                                                                                                                                                                                                                                                                                                                                                                                                                                        
0306090CUIT0030714528749000008   PAPR202109030000000000000041CUL27290972529KOHLER AIME BARBARA                        0000000000000000720015188000003945072           CALLE FALSA 123         1414      CABA                        C100001080camila.j.gonzalez@gmail.com                                                                                                                                                                                   00000000                            00000000                            00000000                                                                                                    00000004                                                                                                                                                                                                                          
0306020CUIT0030714528749000009000000000000005000000050000000600000                                            0000000000000                                               PAPR20210903          S0000000600000                                        CUL2338254809400010000000000000000  0000000000000000                                                                                                                                                                                                                                                                                                                                                                                                                                                                                                                                                                        
0306090CUIT0030714528749000010   PAPR202109030000000000000051CUL23382548094PELUFFO AILEN                              0000000000000000070241830004019910908           CALLE FALSA 123         1414      CABA                        C100001080olipueyrredon@gmail.com                                                                                                                                                                                       00000000                            00000000                            00000000                                                                                                    00000005                                                                                                                                                                                                                          
0306020CUIT0030714528749000011000000000000006000000060000000945000                                            0000000000000                                               PAPR20210903          S0000000945000                                        CUL2013025714400010000000000000000  0000000000000000                                                                                                                                                                                                                                                                                                                                                                                                                                                                                                                                                                        
0306090CUIT0030714528749000012   PAPR202109030000000000000061CUL20130257144POLANIS EDUARDO ESTANISLAO                 0000000000000000340304208239985231002           CALLE FALSA 123         1414      CABA                        C100001080polanisivan@gmail.com                                                                                                                                                                                         00000000                            00000000                            00000000                                                                                                    00000006                                                                                                                                                                                                                          
0306020CUIT0030714528749000013000000000000007000000070000000945000                                            0000000000000                                               PAPR20210903           0000000945000                                        CUL2727658053700010000000000000000  0000000000000000                                                                                                                                                                                                                                                                                                                                                                                                                                                                                                                                                                        
0306090CUIT0030714528749000014   PAPR202109030000000000000071CUL27276580537MARIN LUCIANA EMILSE                       0000000000000000170306940000030382521           CALLE FALSA 123         1414      CABA                        C100001080agustinromero97d@gmail.com                                                                                                                                                                                    00000000                            00000000                            00000000                                                                                                    00000007                                                                                                                                                                                                                          
0306020CUIT0030714528749000015000000000000008000000080000000945000                                            0000000000000                                               PAPR20210903           0000000945000                                        CUL2031638871000010000000000000000  0000000000000000                                                                                                                                                                                                                                                                                                                                                                                                                                                                                                                                                                        
0306090CUIT0030714528749000016   PAPR202109030000000000000081CUL20316388710RODRIGUEZ MATIAS EZEQUIEL                  0000000000000000170016940000006300553           CALLE FALSA 123         1414      CABA                        C100001080carlasabrinasanchez@gmail.com                                                                                                                                                                                 00000000                            00000000                            00000000                                                                                                    00000008                                                                                                                                                                                                                          
0306020CUIT0030714528749000017000000000000009000000090000001075000                                            0000000000000                                               PAPR20210903          S0000001075000                                        CUL2731997534400010000000000000000  0000000000000000                                                                                                                                                                                                                                                                                                                                                                                                                                                                                                                                                                        
0306090CUIT0030714528749000018   PAPR202109030000000000000091CUL27319975344CASTRO SERRA CARLA JUDITH                  0000000000000000110213230021393859629           CALLE FALSA 123         1414      CABA                        C100001080constanzas.zapata@gmail.com                                                                                                                                                                                   00000000                            00000000                            00000000                                                                                                    00000009                                                                                                                                                                                                                          
0306020CUIT0030714528749000019000000000000010000000100000001075000                                            0000000000000                                               PAPR20210903          S0000001075000                                        CUL2042951718500010000000000000000  0000000000000000                                                                                                                                                                                                                                                                                                                                                                                                                                                                                                                                                                        
0306090CUIT0030714528749000020   PAPR202109030000000000000101CUL20429517185CUELLO FEDERICO JESUS FERNANDO             0000000000000000110051830005106127179           CALLE FALSA 123         1414      CABA                        C100001080phfedericocuello@outlook.com                                                                                                                                                                                  00000000                            00000000                            00000000                                                                                                    00000010                                                                                                                                                                                                                          
0306020CUIT0030714528749000021000000000000011000000110000001075000                                            0000000000000                                               PAPR20210903          S0000001075000                                        CUL2028117985400010000000000000000  0000000000000000                                                                                                                                                                                                                                                                                                                                                                                                                                                                                                                                                                        
0306090CUIT0030714528749000022   PAPR202109030000000000000111CUL20281179854MARTINEZ CLAUDIO DAVID                     0000000000000000270019920004710420019           CALLE FALSA 123         1414      CABA                        C100001080martinez.claudiodavid@gmail.com                                                                                                                                                                               00000000                            00000000                            00000000                                                                                                    00000011                                                                                                                                                                                                                          
0306020CUIT0030714528749000023000000000000012000000120000001075000                                            0000000000000                                               PAPR20210903          S0000001075000                                        CUL2020294971200010000000000000000  0000000000000000                                                                                                                                                                                                                                                                                                                                                                                                                                                                                                                                                                        
0306090CUIT0030714528749000024   PAPR202109030000000000000121CUL20202949712BARRIO JUAN PABLO                          0000000000000001910120255012050247946           CALLE FALSA 123         1414      CABA                        C100001080contacto@juansebarrio.com                                                                                                                                                                                     00000000                            00000000                            00000000                                                                                                    00000012                                                                                                                                                                                                                          
0306020CUIT0030714528749000025000000000000013000000130000000600000                                            0000000000000                                               PAPR20210903          S0000000600000                                        CUL2333984324400010000000000000000  0000000000000000                                                                                                                                                                                                                                                                                                                                                                                                                                                                                                                                                                        
0306090CUIT0030714528749000026   PAPR202109030000000000000131CUL23339843244NOTO MARIANA                               0000000000000000720413988000001474772           CALLE FALSA 123         1414      CABA                        C100001080mariananoto88@gmail.com                                                                                                                                                                                       00000000                            00000000                            00000000                                                                                                    00000013                                                                                                                                                                                                                          
0306020CUIT0030714528749000027000000000000014000000140000000885000                                            0000000000000                                               PAPR20210903           0000000885000                                        CUL2095991017100010000000000000000  0000000000000000                                                                                                                                                                                                                                                                                                                                                                                                                                                                                                                                                                        
0306090CUIT0030714528749000028   PAPR202109030000000000000141CUL20959910171FERNANDEZ QUIJADA ALEJANDRO MOISES         0000000000000000170342720000031063939           CALLE FALSA 123         1414      CABA                        C100001080alejandromoises02@gmail.com                                                                                                                                                                                   00000000                            00000000                            00000000                                                                                                    00000014                                                                                                                                                                                                                          
0306020CUIT0030714528749000029000000000000015000000150000001200000                                            0000000000000                                               PAPR20210903          S0000001200000                                        CUL2735130252100010000000000000000  0000000000000000                                                                                                                                                                                                                                                                                                                                                                                                                                                                                                                                                                        
0306090CUIT0030714528749000030   PAPR202109030000000000000151CUL27351302521JOUANNY VIRGINIA                           0000000000000000140415303610053310486           CALLE FALSA 123         1414      CABA                        C100001080virginiajouanny@gmail.com                                                                                                                                                                                     00000000                            00000000                            00000000                                                                                                    00000015                                                                                                                                                                                                                          
0306020CUIT0030714528749000031000000000000016000000160000000720200                                            0000000000000                                               PAPR20210903          S0000000720200                                        CUL2718270519000010000000000000000  0000000000000000                                                                                                                                                                                                                                                                                                                                                                                                                                                                                                                                                                        
0306090CUIT0030714528749000032   PAPR202109030000000000000161CUL27182705190GOLDSTEIN SILVIA DEBORA                    0000000000000002590005920349578230168           CALLE FALSA 123         1414      CABA                        C100001080yoelniewod@gmail.com                                                                                                                                                                                          00000000                            00000000                            00000000                                                                                                    00000016                                                                                                                                                                                                                          
0306020CUIT0030714528749000033000000000000017000000170000001075000                                            0000000000000                                               PAPR20210903          S0000001075000                                        CUL2042373552000010000000000000000  0000000000000000                                                                                                                                                                                                                                                                                                                                                                                                                                                                                                                                                                        
0306090CUIT0030714528749000034   PAPR202109030000000000000171CUL20423735520MONTA MAURICIO JESUS                       0000000000000000290066710000529248575           CALLE FALSA 123         1414      CABA                        C100001080mauriciomonta363@gmail.com                                                                                                                                                                                    00000000                            00000000                            00000000                                                                                                    00000017                                                                                                                                                                                                                          
0306020CUIT0030714528749000035000000000000018000000180000000600000                                            0000000000000                                               PAPR20210903          S0000000600000                                        CUL2729521709500010000000000000000  0000000000000000                                                                                                                                                                                                                                                                                                                                                                                                                                                                                                                                                                        
0306090CUIT0030714528749000036   PAPR202109030000000000000181CUL27295217095BARRIOS GABRIELA MABEL                     0000000000000001430001713001870640019           CALLE FALSA 123         1414      CABA                        C100001080gabrielambarrios@gmail.com                                                                                                                                                                                    00000000                            00000000                            00000000                                                                                                    00000018                                                                                                                                                                                                                          
0306020CUIT0030714528749000037000000000000019000000190000001075000                                            0000000000000                                               PAPR20210903          S0000001075000                                        CUL2040854608800010000000000000000  0000000000000000                                                                                                                                                                                                                                                                                                                                                                                                                                                                                                                                                                        
0306090CUIT0030714528749000038   PAPR202109030000000000000191CUL20408546088DA SILVA AYRTON NAHUEL                     0000000000000000720558388000035778954           CALLE FALSA 123         1414      CABA                        C100001080ayrtonds97@gmail.com                                                                                                                                                                                          00000000                            00000000                            00000000                                                                                                    00000019                                                                                                                                                                                                                          
0306020CUIT0030714528749000039000000000000020000000200000000600000                                            0000000000000                                               PAPR20210903          S0000000600000                                        CUL2034359167600010000000000000000  0000000000000000                                                                                                                                                                                                                                                                                                                                                                                                                                                                                                                                                                        
0306090CUIT0030714528749000040   PAPR202109030000000000000201CUL20343591676HOFMAN BRIAN LEONEL                        0000000000000001500304500030460301782           CALLE FALSA 123         1414      CABA                        C100001080blhofman89@gmail.com                                                                                                                                                                                          00000000                            00000000                            00000000                                                                                                    00000020                                                                                                                                                                                                                          
0306020CUIT0030714528749000041000000000000021000000210000001300750                                            0000000000000                                               PAPR20210903          S0000001300750                                        CUL2017046555600010000000000000000  0000000000000000                                                                                                                                                                                                                                                                                                                                                                                                                                                                                                                                                                        
0306090CUIT0030714528749000042   PAPR202109030000000000000211CUL20170465556ESNAOLA JUAN JOSE                          0000000000000001430001713000487290011           CALLE FALSA 123         1414      CABA                        C100001080josefinaesna@gmail.com                                                                                                                                                                                        00000000                            00000000                            00000000                                                                                                    00000021                                                                                                                                                                                                                          
0306020CUIT0030714528749000043000000000000022000000220000001075000                                            0000000000000                                               PAPR20210903          S0000001075000                                        CUL2032173401500010000000000000000  0000000000000000                                                                                                                                                                                                                                                                                                                                                                                                                                                                                                                                                                        
0306090CUIT0030714528749000044   PAPR202109030000000000000221CUL20321734015OLEJNIK ESTEBAN DARIO                      0000000000000000070096230004019441763           CALLE FALSA 123         1414      CABA                        C100001080bg.administracion@gmail.com                                                                                                                                                                                   00000000                            00000000                            00000000                                                                                                    00000022                                                                                                                                                                                                                          
0306020CUIT0030714528749000045000000000000023000000230000001075000                                            0000000000000                                               PAPR20210903          S0000001075000                                        CUL2720006852700010000000000000000  0000000000000000                                                                                                                                                                                                                                                                                                                                                                                                                                                                                                                                                                        
0306090CUIT0030714528749000046   PAPR202109030000000000000231CUL27200068527MORALES MARIA KARINA                       0000000000000001500072500032260294396           CALLE FALSA 123         1414      CABA                        C100001080meneisarg@gmail.com                                                                                                                                                                                           00000000                            00000000                            00000000                                                                                                    00000023                                                                                                                                                                                                                          
0306020CUIT0030714528749000047000000000000024000000240000000967500                                            0000000000000                                               PAPR20210903          S0000000967500                                        CUL2731675968300010000000000000000  0000000000000000                                                                                                                                                                                                                                                                                                                                                                                                                                                                                                                                                                        
0306090CUIT0030714528749000048   PAPR202109030000000000000241CUL27316759683ALMADA MARICEL ANDREA                      0000000000000000720412288000000314640           CALLE FALSA 123         1414      CABA                        C100001080romialmada1@gmail.com                                                                                                                                                                                         00000000                            00000000                            00000000                                                                                                    00000024                                                                                                                                                                                                                          
0306020CUIT0030714528749000049000000000000025000000250000000750074                                            0000000000000                                               PAPR20210903          S0000000750074                                        CUL2020573509800010000000000000000  0000000000000000                                                                                                                                                                                                                                                                                                                                                                                                                                                                                                                                                                        
0306090CUIT0030714528749000050   PAPR202109030000000000000251CUL20205735098MAZZARO ESTEBAN                            0000000000000000070065830004008548073           CALLE FALSA 123         1414      CABA                        C100001080camilamazzaro90@gmail.com                                                                                                                                                                                     00000000                            00000000                            00000000                                                                                                    00000025                                                                                                                                                                                                                          
0306020CUIT0030714528749000051000000000000026000000260000001075000                                            0000000000000                                               PAPR20210903          S0000001075000                                        CUL2036530593600010000000000000000  0000000000000000                                                                                                                                                                                                                                                                                                                                                                                                                                                                                                                                                                        
0306090CUIT0030714528749000052   PAPR202109030000000000000261CUL20365305936CONTE LUCIANO GABRIEL                      0000000000000000290066710000522076711           CALLE FALSA 123         1414      CABA                        C100001080lgconte_91@hotmail.com                                                                                                                                                                                        00000000                            00000000                            00000000                                                                                                    00000026                                                                                                                                                                                                                          
0306020CUIT0030714528749000053000000000000027000000270000000750000                                            0000000000000                                               PAPR20210903          S0000000750000                                        CUL2741856960900010000000000000000  0000000000000000                                                                                                                                                                                                                                                                                                                                                                                                                                                                                                                                                                        
0306090CUIT0030714528749000054   PAPR202109030000000000000271CUL27418569609OIENI ALDANA NEREA                         0000000000000000720006988000038598454           CALLE FALSA 123         1414      CABA                        C100001080aldanaoieni@hotmail.com                                                                                                                                                                                       00000000                            00000000                            00000000                                                                                                    00000027                                                                                                                                                                                                                          
0306020CUIT0030714528749000055000000000000028000000280000000945000                                            0000000000000                                               PAPR20210903          S0000000945000                                        CUL2710107568600010000000000000000  0000000000000000                                                                                                                                                                                                                                                                                                                                                                                                                                                                                                                                                                        
0306090CUIT0030714528749000056   PAPR202109030000000000000281CUL27101075686ROMERO GRACIELA MARIA DEL PILAR            0000000000000000070338130004013206315           CALLE FALSA 123         1414      CABA                        C100001080marianaplenazio@gmail.com                                                                                                                                                                                     00000000                            00000000                            00000000                                                                                                    00000028                                                                                                                                                                                                                          
0306020CUIT0030714528749000057000000000000029000000290000000537500                                            0000000000000                                               PAPR20210903          S0000000537500                                        CUL2792492340200010000000000000000  0000000000000000                                                                                                                                                                                                                                                                                                                                                                                                                                                                                                                                                                        
0306090CUIT0030714528749000058   PAPR202109030000000000000291CUL27924923402MARTIN PATRICIA JO                         0000000000000000720081688000036785054           CALLE FALSA 123         1414      CABA                        C100001080ctoranzo90@gmail.com                                                                                                                                                                                          00000000                            00000000                            00000000                                                                                                    00000029                                                                                                                                                                                                                          
0306020CUIT0030714528749000059000000000000030000000300000000945000                                            0000000000000                                               PAPR20210903          S0000000945000                                        CUL2013865940300010000000000000000  0000000000000000                                                                                                                                                                                                                                                                                                                                                                                                                                                                                                                                                                        
0306090CUIT0030714528749000060   PAPR202109030000000000000301CUL20138659403DELEGLISE FERNANDO DARIO                   0000000000000000070338130004014694322           CALLE FALSA 123         1414      CABA                        C100001080pauuaranda97@gmail.com                                                                                                                                                                                        00000000                            00000000                            00000000                                                                                                    00000030                                                                                                                                                                                                                          
0306020CUIT0030714528749000061000000000000031000000310000001075000                                            0000000000000                                               PAPR20210903           0000001075000                                        CUL2037659489100010000000000000000  0000000000000000                                                                                                                                                                                                                                                                                                                                                                                                                                                                                                                                                                        
0306090CUIT0030714528749000062   PAPR202109030000000000000311CUL20376594891CABANELAS TOMAS RAMIRO                     0000000000000000170302140000042825377           CALLE FALSA 123         1414      CABA                        C100001080sofi.amc1995@gmail.com                                                                                                                                                                                        00000000                            00000000                            00000000                                                                                                    00000031                                                                                                                                                                                                                          
0306020CUIT0030714528749000063000000000000032000000320000000600000                                            0000000000000                                               PAPR20210903          S0000000600000                                        CUL2711292984900010000000000000000  0000000000000000                                                                                                                                                                                                                                                                                                                                                                                                                                                                                                                                                                        
0306090CUIT0030714528749000064   PAPR202109030000000000000321CUL27112929849IEMOLO ELIANA JOSEFINA                     0000000000000000290027810000000995325           CALLE FALSA 123         1414      CABA                        C100001080claudiacerecedo@hotmail.com                                                                                                                                                                                   00000000                            00000000                            00000000                                                                                                    00000032                                                                                                                                                                                                                          
0306020CUIT0030714528749000065000000000000033000000330000000945000                                            0000000000000                                               PAPR20210903          S0000000945000                                        CUL2012601158000010000000000000000  0000000000000000                                                                                                                                                                                                                                                                                                                                                                                                                                                                                                                                                                        
0306090CUIT0030714528749000066   PAPR202109030000000000000331CUL20126011580MOLHO EDUARDO JORGE                        0000000000000000150512201000134793585           CALLE FALSA 123         1414      CABA                        C100001080arielmolho@gmail.com                                                                                                                                                                                          00000000                            00000000                            00000000                                                                                                    00000033                                                                                                                                                                                                                          
0306020CUIT0030714528749000067000000000000034000000340000000945000                                            0000000000000                                               PAPR20210903          S0000000945000                                        CUL2736688069600010000000000000000  0000000000000000                                                                                                                                                                                                                                                                                                                                                                                                                                                                                                                                                                        
0306090CUIT0030714528749000068   PAPR202109030000000000000341CUL27366880696PALMIERI NATASHA                           0000000000000000720099188000001688168           CALLE FALSA 123         1414      CABA                        C100001080palm.natasha@gmail.com                                                                                                                                                                                        00000000                            00000000                            00000000                                                                                                    00000034                                                                                                                                                                                                                          
0306020CUIT0030714528749000069000000000000035000000350000000537500                                            0000000000000                                               PAPR20210903          S0000000537500                                        CUL2728407185400010000000000000000  0000000000000000                                                                                                                                                                                                                                                                                                                                                                                                                                                                                                                                                                        
0306090CUIT0030714528749000070   PAPR202109030000000000000351CUL27284071854BALON DENISE                               0000000000000000150506101000142727547           CALLE FALSA 123         1414      CABA                        C100001080denisebalon@hotmail.com                                                                                                                                                                                       00000000                            00000000                            00000000                                                                                                    00000035                                                                                                                                                                                                                          
0306020CUIT0030714528749000071000000000000036000000360000000600000                                            0000000000000                                               PAPR20210903          S0000000600000                                        CUL2026601743000010000000000000000  0000000000000000                                                                                                                                                                                                                                                                                                                                                                                                                                                                                                                                                                        
0306090CUIT0030714528749000072   PAPR202109030000000000000361CUL20266017430CATALDI FERRERO PABLO EMANUEL              0000000000000001910439355043901127814
          CALLE FALSA 123          1414      CABA                       C100001108alojezabel@gmail.com                                                                                                                                                                                          00000000                            00000000                            000000000                                                                                                   000000365                                                                                                                                                                                                                          
0306020CUIT0030714528749000073000000000000037000000370000001080000                                            0000000000000                                               PAPR20210903          S0000001080000                                        CUL2734682130800010000000000000000  0000000000000000                                                                                                                                                                                                                                                                                                                                                                                                                                                                                                                                                                        
0306090CUIT0030714528749000074   PAPR202109030000000000000371CUL27346821308PEREZ GAB CARLA GISELE                     0000000000000000140999803200073829521
          CALLE FALSA 123          1414      CABA                       C100001108pilarnbarcia@gmail.com                                                                                                                                                                                        00000000                            00000000                            000000000                                                                                                   000000375                                                                                                                                                                                                                          
0306020CUIT0030714528749000075000000000000038000000380000001075000                                            0000000000000                                               PAPR20210903          S0000001075000                                        CUL2338931670900010000000000000000  0000000000000000                                                                                                                                                                                                                                                                                                                                                                                                                                                                                                                                                                        
0306090CUIT0030714528749000076   PAPR202109030000000000000381CUL23389316709MERCADO JOSE MAXIMILIANO                   0000000000000000720486388000036413340
          CALLE FALSA 123          1414      CABA                       C100001108makrodevjs@gmail.com                                                                                                                                                                                          00000000                            00000000                            000000000                                                                                                   000000385                                                                                                                                                                                                                          
0306020CUIT0030714528749000077000000000000039000000390000001075000                                            0000000000000                                               PAPR20210903           0000001075000                                        CUL2737172680800010000000000000000  0000000000000000                                                                                                                                                                                                                                                                                                                                                                                                                                                                                                                                                                        
0306090CUIT0030714528749000078   PAPR202109030000000000000391CUL27371726808ARRIOLA ERIKA VALERIA                      0000000000000000170022040000003939206
          CALLE FALSA 123          1414      CABA                       C100001108coccagerman@gmail.com                                                                                                                                                                                         00000000                            00000000                            000000000                                                                                                   000000395                                                                                                                                                                                                                          
0306020CUIT0030714528749000079000000000000040000000400000001075000                                            0000000000000                                               PAPR20210903          S0000001075000                                        CUL2023257858100010000000000000000  0000000000000000                                                                                                                                                                                                                                                                                                                                                                                                                                                                                                                                                                        
0306090CUIT0030714528749000080   PAPR202109030000000000000401CUL20232578581CECCO RUBEN DARIO                          0000000000000002850033140094063861618
          CALLE FALSA 123          1414      CABA                       C100001108acecco6@gmail.com                                                                                                                                                                                             00000000                            00000000                            000000000                                                                                                   000000405                                                                                                                                                                                                                          
0306020CUIT0030714528749000081000000000000041000000410000000600000                                            0000000000000                                               PAPR20210903          S0000000600000                                        CUL2721526147100010000000000000000  0000000000000000                                                                                                                                                                                                                                                                                                                                                                                                                                                                                                                                                                        
0306090CUIT0030714528749000082   PAPR202109030000000000000411CUL27215261471HERNANDEZ MARISA                           0000000000000000140319803666553199861
          CALLE FALSA 123          1414      CABA                       C100001108clarapeletay@gmail.com                                                                                                                                                                                        00000000                            00000000                            000000000                                                                                                   000000415                                                                                                                                                                                                                          
0306020CUIT0030714528749000083000000000000042000000420000000967500                                            0000000000000                                               PAPR20210903          S0000000967500                                        CUL2737825029900010000000000000000  0000000000000000                                                                                                                                                                                                                                                                                                                                                                                                                                                                                                                                                                        
0306090CUIT0030714528749000084   PAPR202109030000000000000421CUL27378250299BELLEZZE AGOSTINA SOFIA                    0000000000000000290002510000528714743
          CALLE FALSA 123          1414      CABA                       C100001108abellezze_@hotmail.es                                                                                                                                                                                         00000000                            00000000                            000000000                                                                                                   000000425                                                                                                                                                                                                                          
0306020CUIT0030714528749000085000000000000043000000430000001075000                                            0000000000000                                               PAPR20210903          S0000001075000                                        CUL2037608601200010000000000000000  0000000000000000                                                                                                                                                                                                                                                                                                                                                                                                                                                                                                                                                                        
0306090CUIT0030714528749000086   PAPR202109030000000000000431CUL20376086012WEISS JOAQUIN CONRADO                      0000000000000001430001713002643600018
          CALLE FALSA 123          1414      CABA                       C100001108joaco.w93@gmail.com                                                                                                                                                                                           00000000                            00000000                            000000000                                                                                                   000000435                                                                                                                                                                                                                          
0306020CUIT0030714528749000087000000000000044000000440000000945000                                            0000000000000                                               PAPR20210903           0000000945000                                        CUL2032639479400010000000000000000  0000000000000000                                                                                                                                                                                                                                                                                                                                                                                                                                                                                                                                                                        
0306090CUIT0030714528749000088   PAPR202109030000000000000441CUL20326394794CANDIA GERMAN MARCELO                      0000000000000000170317540000072244601
          CALLE FALSA 123          1414      CABA                       C100001108matiasd.gimenez@gmail.com                                                                                                                                                                                     00000000                            00000000                            000000000                                                                                                   000000445                                                                                                                                                                                                                          
0306020CUIT0030714528749000089000000000000045000000450000000945000                                            0000000000000                                               PAPR20210903           0000000945000                                        CUL2033035945600010000000000000000  0000000000000000                                                                                                                                                                                                                                                                                                                                                                                                                                                                                                                                                                        
0306090CUIT0030714528749000090   PAPR202109030000000000000451CUL20330359456PUJOL HECTOR ANDRES                        0000000000000000170356440000031715476
          CALLE FALSA 123          1414      CABA                       C100001108andrespujol@gmail.com                                                                                                                                                                                         00000000                            00000000                            000000000                                                                                                   000000455                                                                                                                                                                                                                          
0306020CUIT0030714528749000091000000000000046000000460000000945000                                            0000000000000                                               PAPR20210903          S0000000945000                                        CUL2033035945600010000000000000000  0000000000000000                                                                                                                                                                                                                                                                                                                                                                                                                                                                                                                                                                        
0306090CUIT0030714528749000092   PAPR202109030000000000000461CUL20330359456MIR NADIA AYELEN                           0000000000000000140073103501857456835
          CALLE FALSA 123          1414      CABA                       C100001108iamhernanflores@gmail.com                                                                                                                                                                                     00000000                            00000000                            000000000                                                                                                   000000465                                                                                                                                                                                                                          
0306020CUIT0030714528749000093000000000000047000000470000000967500                                            0000000000000                                               PAPR20210903           0000000967500                                        CUL2737935722400010000000000000000  0000000000000000                                                                                                                                                                                                                                                                                                                                                                                                                                                                                                                                                                        
0306090CUIT0030714528749000094   PAPR202109030000000000000471CUL27379357224HERRERA MARIA FIORELLA                     0000000000000000170223340000031842637
          CALLE FALSA 123          1414      CABA                       C100001108brandan.geronimo@gmail.com                                                                                                                                                                                    00000000                            00000000                            000000000                                                                                                   000000475                                                                                                                                                                                                                          
0306020CUIT0030714528749000095000000000000048000000480000000945000                                            0000000000000                                               PAPR20210903          S0000000945000                                        CUL2734022089200010000000000000000  0000000000000000                                                                                                                                                                                                                                                                                                                                                                                                                                                                                                                                                                        
0306090CUIT0030714528749000096   PAPR202109030000000000000481CUL27340220892MENDEZ MARIA                               0000000000000000340044908146009318006
          CALLE FALSA 123          1414      CABA                       C100001108gisele.orciani@gmail.com                                                                                                                                                                                      00000000                            00000000                            000000000                                                                                                   000000485                                                                                                                                                                                                                          
0306020CUIT0030714528749000097000000000000049000000490000001075000                                            0000000000000                                               PAPR20210903          S0000001075000                                        CUL2041025798000010000000000000000  0000000000000000                                                                                                                                                                                                                                                                                                                                                                                                                                                                                                                                                                        
0306090CUIT0030714528749000098   PAPR202109030000000000000491CUL20410257980WENSKO CLAUDIO JAVIER                      0000000000000000720048988000038032172
          CALLE FALSA 123          1414      CABA                       C100001108javierwnk2@outlook.com                                                                                                                                                                                        00000000                            00000000                            000000000                                                                                                   000000495                                                                                                                                                                                                                          
0306020CUIT0030714528749000099000000000000050000000500000001075000                                            0000000000000                                               PAPR20210903          S0000001075000                                        CUL2037619364100010000000000000000  0000000000000000                                                                                                                                                                                                                                                                                                                                                                                                                                                                                                                                                                        
0306090CUIT0030714528749000100   PAPR202109030000000000000501CUL20376193641BABIKIAN TOMAS JOSE                        0000000000000000720270688000037046954
          CALLE FALSA 123          1414      CABA                       C100001108mbabikian21@gmail.com                                                                                                                                                                                         00000000                            00000000                            000000000                                                                                                   000000505                                                                                                                                                                                                                          
0306020CUIT0030714528749000101000000000000051000000510000001075000                                            0000000000000                                               PAPR20210903          S0000001075000                                        CUL2795086383300010000000000000000  0000000000000000                                                                                                                                                                                                                                                                                                                                                                                                                                                                                                                                                                        
0306090CUIT0030714528749000102   PAPR202109030000000000000511CUL27950863833ORTIZ LOPEZ MARTA RAMONA                   0000000000000000140000703100018333080
          CALLE FALSA 123          1414      CABA                       C100001108felipeofor@gmail.com                                                                                                                                                                                          00000000                            00000000                            000000000                                                                                                   000000515                                                                                                                                                                                                                          
0306020CUIT0030714528749000103000000000000052000000520000000967500                                            0000000000000                                               PAPR20210903          S0000000967500                                        CUL2436447172200010000000000000000  0000000000000000                                                                                                                                                                                                                                                                                                                                                                                                                                                                                                                                                                        
0306090CUIT0030714528749000104   PAPR202109030000000000000521CUL24364471722VIOTTO ROCIO                               0000000000000000200307611000012128026
          CALLE FALSA 123          1414      CABA                       C100001108maxicoronel1992@gmail.com                                                                                                                                                                                     00000000                            00000000                            000000000                                                                                                   000000525                                                                                                                                                                                                                          
0306020CUIT0030714528749000105000000000000053000000530000001072000                                            0000000000000                                               PAPR20210903          S0000001072000                                        CUL2031387689700010000000000000000  0000000000000000                                                                                                                                                                                                                                                                                                                                                                                                                                                                                                                                                                        
0306090CUIT0030714528749000106   PAPR202109030000000000000531CUL20313876897LAUREANO URALDE                            0000000000000000070025230004037472514
          CALLE FALSA 123          1414      CABA                       C100001108johanamartinez904@gmail.com                                                                                                                                                                                   00000000                            00000000                            000000000                                                                                                   000000535                                                                                                                                                                                                                          
0306020CUIT0030714528749000107000000000000054000000540000001075000                                            0000000000000                                               PAPR20210903          S0000001075000                                        CUL2716536917900010000000000000000  0000000000000000                                                                                                                                                                                                                                                                                                                                                                                                                                                                                                                                                                        
0306090CUIT0030714528749000108   PAPR202109030000000000000541CUL27165369179PRUVOST NORMA EDIT                         0000000000000000070260930004006571435
          CALLE FALSA 123          1414      CABA                       C100001108portmannp455@gmail.com                                                                                                                                                                                        00000000                            00000000                            000000000                                                                                                   000000545                                                                                                                                                                                                                          
0306020CUIT0030714528749000109000000000000055000000550000001075000                                            0000000000000                                               PAPR20210903          S0000001075000                                        CUL2037170412500010000000000000000  0000000000000000                                                                                                                                                                                                                                                                                                                                                                                                                                                                                                                                                                        
0306090CUIT0030714528749000110   PAPR202109030000000000000551CUL20371704125DUFFY KEVIN AXEL                           0000000000000000070049830004023775225
          CALLE FALSA 123          1414      CABA                       C100001108di.duffykevin92@gmail.com                                                                                                                                                                                     00000000                            00000000                            000000000                                                                                                   000000555                                                                                                                                                                                                                          
0306020CUIT0030714528749000111000000000000056000000560000001200000                                            0000000000000                                               PAPR20210903           0000001200000                                        CUL2093283734000010000000000000000  0000000000000000                                                                                                                                                                                                                                                                                                                                                                                                                                                                                                                                                                        
0306090CUIT0030714528749000112   PAPR202109030000000000000561CUL20932837340ZUAZO JOAQUIN CIOLFI                       0000000000000000170297440000030508730
          CALLE FALSA 123          1414      CABA                       C100001108jzuazociolfi@gmail.com                                                                                                                                                                                        00000000                            00000000                            000000000                                                                                                   000000565                                                                                                                                                                                                                          
0306020CUIT0030714528749000113000000000000057000000570000000650000                                            0000000000000                                               PAPR20210903          S0000000650000                                        CUL2735269910700010000000000000000  0000000000000000                                                                                                                                                                                                                                                                                                                                                                                                                                                                                                                                                                        
0306090CUIT0030714528749000114   PAPR202109030000000000000571CUL27352699107RODRIGUEZ NAVARRO LILEN                    0000000000000000070158330004037334618
          CALLE FALSA 123          1414      CABA                       C100001108lilenrodrigueznavarro@hotmail.com                                                                                                                                                                             00000000                            00000000                            000000000                                                                                                   000000575                                                                                                                                                                                                                          
0306020CUIT0030714528749000115000000000000058000000580000001075000                                            0000000000000                                               PAPR20210903          S0000001075000                                        CUL2340427718900010000000000000000  0000000000000000                                                                                                                                                                                                                                                                                                                                                                                                                                                                                                                                                                        
0306090CUIT0030714528749000116   PAPR202109030000000000000581CUL23404277189SOEZ PEDRO FABIAN JESUS                   0000000000000000140077903504054543524
          CALLE FALSA 123          1414      CABA                       C100001108molinayvediaclara@outlook.com                                                                                                                                                                                 00000000                            00000000                            000000000                                                                                                   000000585                                                                                                                                                                                                                          
